{
  "_format": "hh-sol-artifact-1",
  "contractName": "KYCRegistry",
  "sourceName": "contracts/KYCRegistry.sol",
  "abi": [
    {
      "inputs": [],
      "stateMutability": "nonpayable",
      "type": "constructor"
    },
    {
      "anonymous": false,
      "inputs": [
        {
          "indexed": true,
          "internalType": "address",
          "name": "user",
          "type": "address"
        },
        {
          "indexed": false,
          "internalType": "bytes32",
          "name": "dataHash",
          "type": "bytes32"
        },
        {
          "indexed": false,
          "internalType": "string",
          "name": "role",
          "type": "string"
        }
      ],
      "name": "KYCSubmitted",
      "type": "event"
    },
    {
      "anonymous": false,
      "inputs": [
        {
          "indexed": true,
          "internalType": "address",
          "name": "user",
          "type": "address"
        },
        {
          "indexed": false,
          "internalType": "bool",
          "name": "status",
          "type": "bool"
        }
      ],
      "name": "KYCVerified",
      "type": "event"
    },
    {
      "inputs": [],
      "name": "admin",
      "outputs": [
        {
          "internalType": "address",
          "name": "",
          "type": "address"
        }
      ],
      "stateMutability": "view",
      "type": "function"
    },
    {
      "inputs": [
        {
          "internalType": "address",
          "name": "user",
          "type": "address"
        }
      ],
      "name": "getKYCRecord",
      "outputs": [
        {
          "components": [
            {
              "internalType": "bytes32",
              "name": "dataHash",
              "type": "bytes32"
            },
            {
              "internalType": "bool",
              "name": "verified",
              "type": "bool"
            },
            {
              "internalType": "uint256",
              "name": "timestamp",
              "type": "uint256"
            },
            {
              "internalType": "string",
              "name": "role",
              "type": "string"
            }
          ],
          "internalType": "struct KYCRegistry.KYCRecord",
          "name": "",
          "type": "tuple"
        }
      ],
      "stateMutability": "view",
      "type": "function"
    },
    {
      "inputs": [
        {
          "internalType": "address",
          "name": "user",
          "type": "address"
        }
      ],
      "name": "isVerified",
      "outputs": [
        {
          "internalType": "bool",
          "name": "",
          "type": "bool"
        }
      ],
      "stateMutability": "view",
      "type": "function"
    },
    {
      "inputs": [
        {
          "internalType": "address",
          "name": "",
          "type": "address"
        }
      ],
      "name": "kycRecords",
      "outputs": [
        {
          "internalType": "bytes32",
          "name": "dataHash",
          "type": "bytes32"
        },
        {
          "internalType": "bool",
          "name": "verified",
          "type": "bool"
        },
        {
          "internalType": "uint256",
          "name": "timestamp",
          "type": "uint256"
        },
        {
          "internalType": "string",
          "name": "role",
          "type": "string"
        }
      ],
      "stateMutability": "view",
      "type": "function"
    },
    {
      "inputs": [
        {
          "internalType": "address",
          "name": "user",
          "type": "address"
        },
        {
          "internalType": "bytes32",
          "name": "dataHash",
          "type": "bytes32"
        },
        {
          "internalType": "string",
          "name": "role",
          "type": "string"
        }
      ],
      "name": "submitKYC",
      "outputs": [],
      "stateMutability": "nonpayable",
      "type": "function"
    },
    {
      "inputs": [
        {
          "internalType": "uint256",
          "name": "",
          "type": "uint256"
        }
      ],
      "name": "verifiedUsers",
      "outputs": [
        {
          "internalType": "address",
          "name": "",
          "type": "address"
        }
      ],
      "stateMutability": "view",
      "type": "function"
    },
    {
      "inputs": [
        {
          "internalType": "address",
          "name": "user",
          "type": "address"
        },
        {
          "internalType": "bool",
          "name": "status",
          "type": "bool"
        }
      ],
      "name": "verifyKYC",
      "outputs": [],
      "stateMutability": "nonpayable",
      "type": "function"
    }
  ],
  "bytecode": "0x6080806040523461002857600080546001600160a01b031916331790556108e2908161002e8239f35b600080fdfe608060405260048036101561001357600080fd5b60003560e01c90816307763ec31461065c578163474adb8f146104f55781637b0fdb9914610216575080637eb606e8146101a2578063973c156b146100dc578063b9209e331461009a5763f851a4401461006c57600080fd5b34610095576000366003190112610095576000546040516001600160a01b039091168152602090f35b600080fd5b34610095576020366003190112610095576001600160a01b036100bb6106e9565b166000526001602052602060ff600160406000200154166040519015158152f35b3461009557602080600319360112610095576100f66106e9565b60608060405161010581610739565b6000815260008582015260006040820152015260018060a01b031660005260018152604060002061019e6040519161013c83610739565b8054835260ff6001820154169084840191151582526101696003600283015492604087019384520161078d565b9160608501928352604051958695818752519086015251151560408501525160608401525160808084015260a0830190610833565b0390f35b34610095576020366003190112610095576001600160a01b036101c36106e9565b1660005260016020526040600020805461019e60ff600184015416926101f060036002830154920161078d565b906040519485948552151560208501526040840152608060608401526080830190610833565b346100955760603660031901126100955761022f6106e9565b9060243567ffffffffffffffff60443511610095573660236044350112156100955767ffffffffffffffff6044358301351161009557366044358381013501602401116100955761028b60018060a01b03600054163314610873565b6040519261029884610739565b81845260006020850152426040850152604051906102c56020601f19601f6044358801350116018361076b565b6044358481013580845290602401602084013760006020604435860135840101526060850191825260018060a01b03169384600052600360019182602052604080600020918051835561032c602082015115158685019060ff801983541691151516179055565b015160028201550191519081519167ffffffffffffffff83116104e05761035384546106ff565b601f8111610495575b50602090601f84116001146104075792806060959381937f5dfc40bfc7e971d15d40b98ec8014e8667c56bd92e0f97b3e79ddd2f3cbc65f19998966000946103fc575b50501b916000199060031b1c19161790555b60405192839182526040602083015260443581013560408301526044358101356024604435018484013760008360443583013584010152601f801991604435013501168101030190a2005b015192508a8061039f565b90601f939293198316918560005260206000209260005b81811061047f5750917f5dfc40bfc7e971d15d40b98ec8014e8667c56bd92e0f97b3e79ddd2f3cbc65f1989795939185606098969410610466575b505050811b0190556103b1565b015160001960f88460031b161c19169055888080610459565b828401518555938601936020938401930161041e565b846000526020600020601f850160051c810191602086106104d6575b601f0160051c019083905b8281106104ca57505061035c565b600081550183906104bc565b90915081906104b1565b604186634e487b7160e01b6000525260246000fd5b346100955760403660031901126100955761050e6106e9565b906024359182151591828403610095576000546001600160a01b039283916105399083163314610873565b169384600052600160205260026040600020015415610624578460005260016020526105788160016040600020019060ff801983541691151516179055565b6105ab575b837f7a02eb9b107b2ab713e88c3cd7ac538e5c21b689d0f1b1f22367578b28fc5d09602085604051908152a2005b600254906801000000000000000082101561060f5750916020916105f68460017f7a02eb9b107b2ab713e88c3cd7ac538e5c21b689d0f1b1f22367578b28fc5d09960160025561069c565b819291549060031b9187831b921b19161790559161057d565b604190634e487b7160e01b6000525260246000fd5b60405162461bcd60e51b8152602081840152601160248201527012d650c81b9bdd081cdd589b5a5d1d1959607a1b6044820152606490fd5b3461009557602036600319011261009557356002548110156100955761068360209161069c565b905460405160039290921b1c6001600160a01b03168152f35b6002548110156106d35760026000527f405787fa12a823e0f2b7631cc41b3ba8828b3321ca811111fa75cd3aa3bb5ace0190600090565b634e487b7160e01b600052603260045260246000fd5b600435906001600160a01b038216820361009557565b90600182811c9216801561072f575b602083101461071957565b634e487b7160e01b600052602260045260246000fd5b91607f169161070e565b6080810190811067ffffffffffffffff82111761075557604052565b634e487b7160e01b600052604160045260246000fd5b90601f8019910116810190811067ffffffffffffffff82111761075557604052565b90604051918260008254926107a1846106ff565b90818452600194858116908160001461081057506001146107cd575b50506107cb9250038361076b565b565b9093915060005260209081600020936000915b8183106107f85750506107cb935082010138806107bd565b855488840185015294850194879450918301916107e0565b9150506107cb94506020925060ff191682840152151560051b82010138806107bd565b919082519283825260005b84811061085f575050826000602080949584010152601f8019910116010190565b60208183018101518483018201520161083e565b1561087a57565b60405162461bcd60e51b815260206004820152600a60248201526927b7363c9030b236b4b760b11b6044820152606490fdfea2646970667358221220a651dd1818cb2c758877d2015b9a88c067fedd2fbd93d1e449c8d0bac9ce1dcf64736f6c63430008130033",
  "linkReferences": {},
  "deployedLinkReferences": {}
}