{
  "_format": "hh-sol-artifact-1",
  "contractName": "MicroLoanContract",
  "sourceName": "contracts/MicroLoanContract.sol",
  "abi": [
    {
      "inputs": [
        {
          "internalType": "address",
          "name": "_kycRegistry",
          "type": "address"
        }
      ],
      "stateMutability": "nonpayable",
      "type": "constructor"
    },
    {
      "anonymous": false,
      "inputs": [
        {
          "indexed": true,
          "internalType": "bytes32",
          "name": "loanId",
          "type": "bytes32"
        },
        {
          "indexed": false,
          "internalType": "uint256",
          "name": "score",
          "type": "uint256"
        }
      ],
      "name": "CreditScoreSet",
      "type": "event"
    },
    {
      "anonymous": false,
      "inputs": [
        {
          "indexed": true,
          "internalType": "bytes32",
          "name": "loanId",
          "type": "bytes32"
        },
        {
          "indexed": false,
          "internalType": "uint256",
          "name": "amount",
          "type": "uint256"
        }
      ],
      "name": "FundsDeposited",
      "type": "event"
    },
    {
      "anonymous": false,
      "inputs": [
        {
          "indexed": true,
          "internalType": "bytes32",
          "name": "loanId",
          "type": "bytes32"
        },
        {
          "indexed": false,
          "internalType": "address",
          "name": "lender",
          "type": "address"
        }
      ],
      "name": "LoanApproved",
      "type": "event"
    },
    {
      "anonymous": false,
      "inputs": [
        {
          "indexed": true,
          "internalType": "bytes32",
          "name": "loanId",
          "type": "bytes32"
        }
      ],
      "name": "LoanCompleted",
      "type": "event"
    },
    {
      "anonymous": false,
      "inputs": [
        {
          "indexed": true,
          "internalType": "bytes32",
          "name": "loanId",
          "type": "bytes32"
        },
        {
          "indexed": false,
          "internalType": "address",
          "name": "borrower",
          "type": "address"
        },
        {
          "indexed": false,
          "internalType": "uint256",
          "name": "amount",
          "type": "uint256"
        }
      ],
      "name": "LoanCreated",
      "type": "event"
    },
    {
      "anonymous": false,
      "inputs": [
        {
          "indexed": true,
          "internalType": "bytes32",
          "name": "loanId",
          "type": "bytes32"
        }
      ],
      "name": "LoanDefaulted",
      "type": "event"
    },
    {
      "anonymous": false,
      "inputs": [
        {
          "indexed": true,
          "internalType": "bytes32",
          "name": "loanId",
          "type": "bytes32"
        },
        {
          "indexed": false,
          "internalType": "string",
          "name": "reason",
          "type": "string"
        }
      ],
      "name": "LoanRejected",
      "type": "event"
    },
    {
      "anonymous": false,
      "inputs": [
        {
          "indexed": true,
          "internalType": "bytes32",
          "name": "loanId",
          "type": "bytes32"
        },
        {
          "indexed": false,
          "internalType": "uint8",
          "name": "stage",
          "type": "uint8"
        },
        {
          "indexed": false,
          "internalType": "bytes32",
          "name": "proofHash",
          "type": "bytes32"
        }
      ],
      "name": "MilestoneProofSubmitted",
      "type": "event"
    },
    {
      "anonymous": false,
      "inputs": [
        {
          "indexed": true,
          "internalType": "bytes32",
          "name": "loanId",
          "type": "bytes32"
        },
        {
          "indexed": false,
          "internalType": "uint8",
          "name": "stage",
          "type": "uint8"
        },
        {
          "indexed": false,
          "internalType": "uint256",
          "name": "amount",
          "type": "uint256"
        }
      ],
      "name": "MilestoneReleased",
      "type": "event"
    },
    {
      "anonymous": false,
      "inputs": [
        {
          "indexed": true,
          "internalType": "bytes32",
          "name": "loanId",
          "type": "bytes32"
        },
        {
          "indexed": false,
          "internalType": "uint256",
          "name": "installment",
          "type": "uint256"
        },
        {
          "indexed": false,
          "internalType": "uint256",
          "name": "penalty",
          "type": "uint256"
        }
      ],
      "name": "PenaltyApplied",
      "type": "event"
    },
    {
      "anonymous": false,
      "inputs": [
        {
          "indexed": true,
          "internalType": "bytes32",
          "name": "loanId",
          "type": "bytes32"
        },
        {
          "indexed": false,
          "internalType": "uint256",
          "name": "installment",
          "type": "uint256"
        },
        {
          "indexed": false,
          "internalType": "uint256",
          "name": "amount",
          "type": "uint256"
        }
      ],
      "name": "RepaymentMade",
      "type": "event"
    },
    {
      "inputs": [],
      "name": "MIN_SCORE",
      "outputs": [
        {
          "internalType": "uint256",
          "name": "",
          "type": "uint256"
        }
      ],
      "stateMutability": "view",
      "type": "function"
    },
    {
      "inputs": [],
      "name": "PENALTY_RATE",
      "outputs": [
        {
          "internalType": "uint256",
          "name": "",
          "type": "uint256"
        }
      ],
      "stateMutability": "view",
      "type": "function"
    },
    {
      "inputs": [],
      "name": "admin",
      "outputs": [
        {
          "internalType": "address",
          "name": "",
          "type": "address"
        }
      ],
      "stateMutability": "view",
      "type": "function"
    },
    {
      "inputs": [
        {
          "internalType": "uint256",
          "name": "",
          "type": "uint256"
        }
      ],
      "name": "allLoanIds",
      "outputs": [
        {
          "internalType": "bytes32",
          "name": "",
          "type": "bytes32"
        }
      ],
      "stateMutability": "view",
      "type": "function"
    },
    {
      "inputs": [
        {
          "internalType": "uint256",
          "name": "amount",
          "type": "uint256"
        },
        {
          "internalType": "uint256",
          "name": "interestRate",
          "type": "uint256"
        },
        {
          "internalType": "uint256",
          "name": "tenureMonths",
          "type": "uint256"
        },
        {
          "internalType": "string",
          "name": "collateral",
          "type": "string"
        }
      ],
      "name": "applyForLoan",
      "outputs": [
        {
          "internalType": "bytes32",
          "name": "loanId",
          "type": "bytes32"
        }
      ],
      "stateMutability": "nonpayable",
      "type": "function"
    },
    {
      "inputs": [
        {
          "internalType": "bytes32",
          "name": "loanId",
          "type": "bytes32"
        }
      ],
      "name": "approveLoan",
      "outputs": [],
      "stateMutability": "nonpayable",
      "type": "function"
    },
    {
      "inputs": [
        {
          "internalType": "address",
          "name": "",
          "type": "address"
        },
        {
          "internalType": "uint256",
          "name": "",
          "type": "uint256"
        }
      ],
      "name": "borrowerLoans",
      "outputs": [
        {
          "internalType": "bytes32",
          "name": "",
          "type": "bytes32"
        }
      ],
      "stateMutability": "view",
      "type": "function"
    },
    {
      "inputs": [
        {
          "internalType": "bytes32",
          "name": "loanId",
          "type": "bytes32"
        }
      ],
      "name": "depositFunds",
      "outputs": [],
      "stateMutability": "payable",
      "type": "function"
    },
    {
      "inputs": [],
      "name": "getAllLoans",
      "outputs": [
        {
          "internalType": "bytes32[]",
          "name": "",
          "type": "bytes32[]"
        }
      ],
      "stateMutability": "view",
      "type": "function"
    },
    {
      "inputs": [
        {
          "internalType": "address",
          "name": "borrower",
          "type": "address"
        }
      ],
      "name": "getBorrowerLoans",
      "outputs": [
        {
          "internalType": "bytes32[]",
          "name": "",
          "type": "bytes32[]"
        }
      ],
      "stateMutability": "view",
      "type": "function"
    },
    {
      "inputs": [
        {
          "internalType": "address",
          "name": "lender",
          "type": "address"
        }
      ],
      "name": "getLenderLoans",
      "outputs": [
        {
          "internalType": "bytes32[]",
          "name": "",
          "type": "bytes32[]"
        }
      ],
      "stateMutability": "view",
      "type": "function"
    },
    {
      "inputs": [
        {
          "internalType": "bytes32",
          "name": "loanId",
          "type": "bytes32"
        }
      ],
      "name": "getLoanCore",
      "outputs": [
        {
          "internalType": "address",
          "name": "borrower",
          "type": "address"
        },
        {
          "internalType": "address",
          "name": "lender",
          "type": "address"
        },
        {
          "internalType": "uint256",
          "name": "amount",
          "type": "uint256"
        },
        {
          "internalType": "uint256",
          "name": "interestRate",
          "type": "uint256"
        },
        {
          "internalType": "uint256",
          "name": "tenureMonths",
          "type": "uint256"
        },
        {
          "internalType": "enum MicroLoanContract.LoanStatus",
          "name": "status",
          "type": "uint8"
        },
        {
          "internalType": "uint256",
          "name": "creditScore",
          "type": "uint256"
        },
        {
          "internalType": "uint256",
          "name": "escrowBalance",
          "type": "uint256"
        },
        {
          "internalType": "uint256",
          "name": "totalRepaid",
          "type": "uint256"
        }
      ],
      "stateMutability": "view",
      "type": "function"
    },
    {
      "inputs": [
        {
          "internalType": "bytes32",
          "name": "loanId",
          "type": "bytes32"
        }
      ],
      "name": "getLoanStatus",
      "outputs": [
        {
          "internalType": "enum MicroLoanContract.LoanStatus",
          "name": "",
          "type": "uint8"
        }
      ],
      "stateMutability": "view",
      "type": "function"
    },
    {
      "inputs": [
        {
          "internalType": "bytes32",
          "name": "loanId",
          "type": "bytes32"
        },
        {
          "internalType": "uint8",
          "name": "idx",
          "type": "uint8"
        }
      ],
      "name": "getMilestone",
      "outputs": [
        {
          "components": [
            {
              "internalType": "uint8",
              "name": "stage",
              "type": "uint8"
            },
            {
              "internalType": "uint256",
              "name": "releasePercent",
              "type": "uint256"
            },
            {
              "internalType": "bytes32",
              "name": "proofHash",
              "type": "bytes32"
            },
            {
              "internalType": "enum MicroLoanContract.MilestoneStatus",
              "name": "status",
              "type": "uint8"
            },
            {
              "internalType": "uint256",
              "name": "releasedAt",
              "type": "uint256"
            },
            {
              "internalType": "uint256",
              "name": "amountReleased",
              "type": "uint256"
            }
          ],
          "internalType": "struct MicroLoanContract.Milestone",
          "name": "",
          "type": "tuple"
        }
      ],
      "stateMutability": "view",
      "type": "function"
    },
    {
      "inputs": [
        {
          "internalType": "bytes32",
          "name": "loanId",
          "type": "bytes32"
        }
      ],
      "name": "getRepaymentSchedule",
      "outputs": [
        {
          "components": [
            {
              "internalType": "uint256",
              "name": "emiAmount",
              "type": "uint256"
            },
            {
              "internalType": "uint256",
              "name": "dueDate",
              "type": "uint256"
            },
            {
              "internalType": "bool",
              "name": "paid",
              "type": "bool"
            },
            {
              "internalType": "uint256",
              "name": "paidAt",
              "type": "uint256"
            },
            {
              "internalType": "uint256",
              "name": "penaltyApplied",
              "type": "uint256"
            }
          ],
          "internalType": "struct MicroLoanContract.RepaymentSchedule[]",
          "name": "",
          "type": "tuple[]"
        }
      ],
      "stateMutability": "view",
      "type": "function"
    },
    {
      "inputs": [],
      "name": "getTotalLoans",
      "outputs": [
        {
          "internalType": "uint256",
          "name": "",
          "type": "uint256"
        }
      ],
      "stateMutability": "view",
      "type": "function"
    },
    {
      "inputs": [],
      "name": "kycRegistry",
      "outputs": [
        {
          "internalType": "contract KYCRegistry",
          "name": "",
          "type": "address"
        }
      ],
      "stateMutability": "view",
      "type": "function"
    },
    {
      "inputs": [
        {
          "internalType": "address",
          "name": "",
          "type": "address"
        },
        {
          "internalType": "uint256",
          "name": "",
          "type": "uint256"
        }
      ],
      "name": "lenderLoans",
      "outputs": [
        {
          "internalType": "bytes32",
          "name": "",
          "type": "bytes32"
        }
      ],
      "stateMutability": "view",
      "type": "function"
    },
    {
      "inputs": [
        {
          "internalType": "bytes32",
          "name": "",
          "type": "bytes32"
        }
      ],
      "name": "loans",
      "outputs": [
        {
          "internalType": "bytes32",
          "name": "loanId",
          "type": "bytes32"
        },
        {
          "internalType": "address",
          "name": "borrower",
          "type": "address"
        },
        {
          "internalType": "address",
          "name": "lender",
          "type": "address"
        },
        {
          "internalType": "uint256",
          "name": "amount",
          "type": "uint256"
        },
        {
          "internalType": "uint256",
          "name": "interestRate",
          "type": "uint256"
        },
        {
          "internalType": "uint256",
          "name": "tenureMonths",
          "type": "uint256"
        },
        {
          "internalType": "string",
          "name": "collateral",
          "type": "string"
        },
        {
          "internalType": "enum MicroLoanContract.LoanStatus",
          "name": "status",
          "type": "uint8"
        },
        {
          "internalType": "uint256",
          "name": "creditScore",
          "type": "uint256"
        },
        {
          "internalType": "uint256",
          "name": "escrowBalance",
          "type": "uint256"
        },
        {
          "internalType": "uint256",
          "name": "totalRepaid",
          "type": "uint256"
        },
        {
          "internalType": "uint256",
          "name": "appliedAt",
          "type": "uint256"
        },
        {
          "internalType": "uint256",
          "name": "approvedAt",
          "type": "uint256"
        },
        {
          "internalType": "uint256",
          "name": "completedAt",
          "type": "uint256"
        }
      ],
      "stateMutability": "view",
      "type": "function"
    },
    {
      "inputs": [
        {
          "internalType": "bytes32",
          "name": "loanId",
          "type": "bytes32"
        },
        {
          "internalType": "uint256",
          "name": "installment",
          "type": "uint256"
        }
      ],
      "name": "makeRepayment",
      "outputs": [],
      "stateMutability": "payable",
      "type": "function"
    },
    {
      "inputs": [
        {
          "internalType": "bytes32",
          "name": "loanId",
          "type": "bytes32"
        }
      ],
      "name": "markDefaulted",
      "outputs": [],
      "stateMutability": "nonpayable",
      "type": "function"
    },
    {
      "inputs": [
        {
          "internalType": "bytes32",
          "name": "loanId",
          "type": "bytes32"
        },
        {
          "internalType": "string",
          "name": "reason",
          "type": "string"
        }
      ],
      "name": "rejectLoan",
      "outputs": [],
      "stateMutability": "nonpayable",
      "type": "function"
    },
    {
      "inputs": [
        {
          "internalType": "bytes32",
          "name": "loanId",
          "type": "bytes32"
        },
        {
          "internalType": "uint256",
          "name": "score",
          "type": "uint256"
        }
      ],
      "name": "setCreditScore",
      "outputs": [],
      "stateMutability": "nonpayable",
      "type": "function"
    },
    {
      "inputs": [
        {
          "internalType": "bytes32",
          "name": "loanId",
          "type": "bytes32"
        },
        {
          "internalType": "uint8",
          "name": "milestoneIndex",
          "type": "uint8"
        },
        {
          "internalType": "bytes32",
          "name": "proofHash",
          "type": "bytes32"
        }
      ],
      "name": "submitMilestoneProof",
      "outputs": [],
      "stateMutability": "nonpayable",
      "type": "function"
    },
    {
      "inputs": [
        {
          "internalType": "bytes32",
          "name": "loanId",
          "type": "bytes32"
        },
        {
          "internalType": "uint8",
          "name": "milestoneIndex",
          "type": "uint8"
        }
      ],
      "name": "verifyAndReleaseMilestone",
      "outputs": [],
      "stateMutability": "nonpayable",
      "type": "function"
    }
  ],
  "bytecode": "0x60803461007a57601f6122bc38819003918201601f19168301916001600160401b0383118484101761007f5780849260209460405283398101031261007a57516001600160a01b0381169081900361007a5760018060a01b031933816001541617600155600054161760005560405161222690816100968239f35b600080fd5b634e487b7160e01b600052604160045260246000fdfe608080604052600436101561001357600080fd5b60003560e01c9081630ad08b8614611ddd575080630b8eed1014611da45780631256181614611cae578063222ff53d14611c5d5780633cdb72f114611c055780633eb156d6146119e857806340b89270146119cb5780634b155b97146119a25780636e4c70ca1461188a5780636ea2fb681461174557806371909e29146112aa578063833be5d51461128c57806392e4c55214610fe5578063945ce82d14610c1a5780639a12bdd214610991578063a5bfd16a14610916578063b595ac7b14610879578063bbfe6e9514610677578063c4a90815146104bb578063dfc3970114610371578063e3ed190214610318578063ecb8bab314610260578063eee8b7ff146101e8578063eeeb0c17146101605763f851a4401461013257600080fd5b3461015b57600036600319011261015b576001546040516001600160a01b039091168152602090f35b600080fd5b3461015b5760208060031936011261015b576001600160a01b03610182611e2c565b1660005260048152604060002090604051908181845491828152019360005281600020916000905b8282106101d1576101cd856101c181890382611f33565b60405191829182611e86565b0390f35b8354865294850194600193840193909101906101aa565b3461015b5760208060031936011261015b576001600160a01b0361020a611e2c565b1660005260038152604060002090604051908181845491828152019360005281600020916000905b828210610249576101cd856101c181890382611f33565b835486529485019460019384019390910190610232565b3461015b57602036600319011261015b5760043561028960018060a01b03600154163314612010565b8060005260026020526102a5600b604060002001541515612049565b8060005260026020526007604060002001805460ff8116906006821015610302576102d46003600593146120ff565b60ff19161790557f62bea93887ccc55bd6a7c447d71f21a125bcf688ab5e5d7c4604936bb3e8bbfe600080a2005b634e487b7160e01b600052602160045260246000fd5b3461015b57604036600319011261015b57610331611e2c565b6001600160a01b031660009081526003602052604090208054602435919082101561015b5760209161036291611e14565b90549060031b1c604051908152f35b3461015b57604036600319011261015b5760043560243567ffffffffffffffff811161015b576103a5903690600401611e58565b8260005260026020526103c1600b604060002001541515612049565b826000526002602052600760406000206103f060018060a01b03806001541633149081156104ab575b50612086565b019182549060ff821660068110156103025780159081156104a0575b501561046b577f069e2e0b342bcdad29b154fe4bcbcd49e555b494c076273ff7d394bab71c798193600260409360ff191617905582825193849260208452816020850152848401376000828201840152601f01601f19168101030190a2005b60405162461bcd60e51b815260206004820152600d60248201526c10d85b9b9bdd081c995a9958dd609a1b6044820152606490fd5b60019150148661040c565b90506002830154163314876103ea565b3461015b57602036600319011261015b5760043560005260026020526040600020805460018060a01b03600192818482015416916002820154169160038201549160048101549360058201549360068301604051809960009083549361052085611ec1565b808552948281169081156106535750600114610612575b505061054592500389611f33565b60ff60078401541695600884015495600985015491600a86015493600b87015495600d600c890154980154986040519c8d5260208d015260408c015260608b015260808a015260a08901526101c0958660c08a0152895180978a015260005b8781106105fb57508899506105c96101e0999860008b8a8c01015260e08a0190611df7565b6101008801526101208701526101408601526101608501526101808401526101a0830152601f01601f19168101030190f35b80602080928d0101516101e0828d010152016105a4565b6000908152602081209092505b848310610639575061054593505081016020018b80610537565b908181946020858195549201015201910190918b9261061f565b9150506020925061054594915060ff191682840152151560051b8201018b80610537565b3461015b5760208060031936011261015b5760043580600052600282526106a7600b604060002001541515612049565b8060005260028252604060002091600783019283549360ff8516600681101561030257610841576101f46008830154106108055760005460405163b9209e3360e01b8152336004820152908490829060249082906001600160a01b03165afa9081156107f9576000916107cc575b50156107875760017f1d4f194ee627e89d67973cf84b5a14659617529a015cb0349ef616e635614eb1949560028401336bffffffffffffffffffffffff60a01b82541617905560ff1916179055600c42910155336000526004815261077e836040600020611fdb565b604051338152a2005b60405162461bcd60e51b815260048101849052601760248201527f4c656e646572204b5943206e6f742076657269666965640000000000000000006044820152606490fd5b6107ec9150843d86116107f2575b6107e48183611f33565b810190611f55565b86610715565b503d6107da565b6040513d6000823e3d90fd5b60405162461bcd60e51b81526004810184905260146024820152734372656469742073636f726520746f6f206c6f7760601b6044820152606490fd5b60405162461bcd60e51b815260048101849052601060248201526f4c6f616e206e6f742070656e64696e6760801b6044820152606490fd5b3461015b57602036600319011261015b576004356000526002602052610120604060002060018060a01b039081600182015416916002820154169060038101546109046004830154600584015460ff60078601541691600886015494600a600988015497015497604051998a5260208a015260408901526060880152608087015260a0860190611df7565b60c084015260e0830152610100820152f35b3461015b57600036600319011261015b57604051806005549182815260208091019260056000527f036b6384b5eca791c62761152d0c79bb0604c104a5fb6f4eb0703f3154bb3db0916000905b82821061097a576101cd856101c181890382611f33565b835486529485019460019384019390910190610963565b3461015b57604036600319011261015b576004356109ad611e04565b8160005260029060208281526109cc600b604060002001541515612049565b6001546001600160a01b0390811633148015610c01575b6109ec90612086565b60ff831660018110159081610bf5575b5015610bbc578460005283825260ff6003610a1e85600e604060002001611f6d565b50015416600381101561030257600103610b81578460005283825283610a4b84600e604060002001611f6d565b50015485600052848352604060002090600e82016064610a7d6001610a708985611f6d565b500154600386015461214f565b0496600984019288845410610b4657946001600096958796958b6005610ae08d89898d9c869b610aaf8f9e8690611f6d565b5001556003610abe8484611f6d565b50019060ff19825416179055610ad48282611f6d565b50600442910155611f6d565b500155610aee858254612162565b9055015416828215610b3d575bf1156107f9577fdd54b35fb157b0ae6f75827d0c5dcf7cb8bd6b163f0e0229ca06cb188abf5a0f92610b2e60409361213d565b9160ff845193168352820152a2005b506108fc610afb565b60405162461bcd60e51b8152600481018890526013602482015272496e73756666696369656e7420657363726f7760681b6044820152606490fd5b60405162461bcd60e51b8152600481018390526013602482015272141c9bdbd9881b9bdd081cdd589b5a5d1d1959606a1b6044820152606490fd5b60405162461bcd60e51b8152600481018390526011602482015270496e76616c6964206d696c6573746f6e6560781b6044820152606490fd5b600391501115866109fc565b50600085815284835260409020840154811633146109e3565b602036600319011261015b5760043580600052600260205260018060a01b0380600260406000200154163303610fb257816000526002602052610c66600b604060002001541515612049565b81600052600260205260406000206007810190815460ff8116600681101561030257600103610f795760038201543403610f345760039160093491015560ff1916179055817fb27db33c2873b1f9761e7ce1dc2691d3974028bf6f815944c848e43a95e6c5d56020604051348152a28160005260026020526040600020906064610cf8600f840154600385015461214f565b0491600981015491838310610ef957600084819492600185610d3e84869897876010819a015560118401600260ff19825416179055426012850155816013850155612162565b6009820155015416828215610ef0575bf1156107f9577fdd54b35fb157b0ae6f75827d0c5dcf7cb8bd6b163f0e0229ca06cb188abf5a0f60408392815190600182526020820152a26000526002602052604060002060038101546201d4c0610daa60048401548361214f565b0460058301548015610eda57610dc0920461216f565b9060005b6005820154811015610ed85760018101808211610ec25762278d0090818102918183041490151715610ec257610dfa904261216f565b9060405191610e0883611f17565b84835260208301526000604083015260006060830152600060808301526026830154600160401b811015610eac57806001610e4c920160268601556026850161218b565b610e96576004608084610e919551845560208101516001850155600284016040820151151560ff8019835416911617905560608101516003850155015191015561217c565b610dc4565b634e487b7160e01b600052600060045260246000fd5b634e487b7160e01b600052604160045260246000fd5b634e487b7160e01b600052601160045260246000fd5b005b634e487b7160e01b600052601260045260246000fd5b506108fc610d4e565b60405162461bcd60e51b8152602060048201526013602482015272496e73756666696369656e7420657363726f7760681b6044820152606490fd5b60405162461bcd60e51b815260206004820152601e60248201527f4d757374206465706f736974206578616374206c6f616e20616d6f756e7400006044820152606490fd5b60405162461bcd60e51b8152602060048201526011602482015270131bd85b881b9bdd08185c1c1c9bdd9959607a1b6044820152606490fd5b60405162461bcd60e51b815260206004820152600b60248201526a27b7363c903632b73232b960a91b6044820152606490fd5b610fee36611e42565b81600052600260209080825260018060a01b0391611017836001604060002001541633146120c3565b84600052818152611031600b604060002001541515612049565b84600052818152604060002093600785019360ff855416600681101561030257600361105d91146120ff565b60268601805483101561125157826110749161218b565b50938085019485549560ff871661121d5760006001830154908142116111a3575b6110a19150835461216f565b341061116757600093849384938493600160ff19809c16179055600342910155600a8b016110d034825461216f565b90558a0154168190341561115d575b3491f1156107f95760407f68127b7012c0638aeee0a62402db977e32896f9f2611612c3d077f89fbac4df291879382519182523490820152a2611121836121a7565b61112757005b600490825416179055600d429101557fb2de89022f85d95d754a62e228df9f43dbb0a92ba0276e7ec0e6cbbe048c4700600080a2005b6108fc91506110df565b60405162461bcd60e51b8152600481018790526014602482015273125b9cdd59999a58da595b9d081c185e5b595b9d60621b6044820152606490fd5b506111b262278d009142612162565b0460018101809111610ec2578254908160011b91808304861490151715610ec2576111e26064916110a19361214f565b048060048501558b7f6d780f6ff9cde38df81183cc1dcf2f007786a6e9fb76dbe8987a65cc5d978ab2604080518a8152848c820152a2611095565b60405162461bcd60e51b815260048101879052600c60248201526b105b1c9958591e481c185a5960a21b6044820152606490fd5b60405162461bcd60e51b8152600481018590526013602482015272125b9d985b1a59081a5b9cdd185b1b1b595b9d606a1b6044820152606490fd5b3461015b57600036600319011261015b576020600554604051908152f35b3461015b5760808060031936011261015b576044359067ffffffffffffffff9060643582811161015b576112e2903690600401611e58565b60005460405163b9209e3360e01b815233600482015292959290602090829060249082906001600160a01b03165afa9081156107f957600091611726575b50156116ee57600435156116b457811561167a5760405160208101903360601b825242603482015260043560548201526054815284810181811087821117610eac576040525190209384600052600260205260406000209285845560018401336bffffffffffffffffffffffff60a01b8254161790556004356003850155602435600485015560058401558111610eac576113be6006830154611ec1565b601f811161162f575b506000601f82116001146115ba579080602093926114fe96976000926115af575b50508160011b916000199060031b1c19161760068201555b6007810160ff19815416905542600b82015561144f60405161142181611efb565b600181526014848201526000604082015260006060820152600085820152600060a0820152600e8301611f81565b61148c60405161145e81611efb565b60028152601e848201526000604082015260006060820152600085820152600060a082015260148301611f81565b6114c960405161149b81611efb565b60038152601e848201526000604082015260006060820152600085820152600060a0820152601a8301611f81565b6000604051936114d885611efb565b60048552601484860152816040860152816060860152840152600060a084015201611f81565b336000526003602052611515816040600020611fdb565b60055490600160401b821015610eac576001820180600555821015611599578060209260056000527f036b6384b5eca791c62761152d0c79bb0604c104a5fb6f4eb0703f3154bb3db00155807f1a0dfea61a24fff93563d54e809e3f4d687fac3792d06b3a66863661af605fcf6040805133815260043586820152a2604051908152f35b634e487b7160e01b600052603260045260246000fd5b0135905087806113e8565b601f198216906006840160005260206000209160005b8181106116175750916114fe9697849260209695600195106115fd575b505050811b016006820155611400565b0135600019600384901b60f8161c191690558780806115ed565b9192602060018192868c0135815501940192016115d0565b600683016000526020600020601f830160051c81019160208410611670575b601f0160051c01905b81811061166457506113c7565b60008155600101611657565b909150819061164e565b60405162461bcd60e51b8152602060048201526012602482015271054656e757265206d757374206265203e20360741b6044820152606490fd5b60405162461bcd60e51b81526020600482015260126024820152710416d6f756e74206d757374206265203e20360741b6044820152606490fd5b60405162461bcd60e51b815260206004820152601060248201526f12d650c81b9bdd081d995c9a599a595960821b6044820152606490fd5b61173f915060203d6020116107f2576107e48183611f33565b86611320565b3461015b5761175336611e42565b61176860018060a01b03600154163314612010565b81600052602060028152611785600b604060002001541515612049565b8260005260028152604060002090600782019283549260ff841660068110156103025761185757908060086101f4930155857fa89206b92eb368658ee8e9753d5844a62c5f47c64fe7e222ff5dd364bf34912984604051848152a2106117e757005b7f069e2e0b342bcdad29b154fe4bcbcd49e555b494c076273ff7d394bab71c798192600260809360ff19161790556024604051918083528201527f4372656469742073636f72652062656c6f77206d696e696d756d2074687265736040820152631a1bdb1960e21b6060820152a2005b60405162461bcd60e51b815260048101849052600b60248201526a4e6f742070656e64696e6760a81b6044820152606490fd5b3461015b5760208060031936011261015b57600435600052600290818152602660406000200191825467ffffffffffffffff8111610eac57604051916005906118d78584841b0185611f33565b82845260009586528486208585019691875b85841061195557604080518981528851818b018190528b928201908b60005b8281106119155784840385f35b855180518552808301518584015260408082015115159086015260608082015190860152608090810151908501529481019460a090930192600101611908565b848860019260405161196681611f17565b86548152848701548382015260ff86880154161515604082015260038701546060820152600487015460808201528152019301930192916118e9565b3461015b57600036600319011261015b576000546040516001600160a01b039091168152602090f35b3461015b57600036600319011261015b5760206040516101f48152f35b3461015b57606036600319011261015b57600435611a04611e04565b60443582600052602060028152611a2c60018060a01b036001604060002001541633146120c3565b8360005260028152611a47600b604060002001541515612049565b60ff92838116600181101580611bfa575b15611bb55785600052600283526040600020908560078301541691600683101561030257600e90611a8c60038095146120ff565b01908683611a9a8685611f6d565b500154168381101561030257611b7c5760001901868111610ec25782611ac1889284611f6d565b500154168281101561030257600203611b3757827f43c5852891029d1ea7f16f9cd37dc762bcb44b0932f6daa48139335edce7975b969492611b198284896002611b1160409c9a611b2b99611f6d565b500155611f6d565b5001805460ff1916600117905561213d565b845193168352820152a2005b60405162461bcd60e51b815260048101859052601f60248201527f50726576696f7573206d696c6573746f6e65206e6f742072656c6561736564006044820152606490fd5b60405162461bcd60e51b8152600481018690526011602482015270105b1c9958591e481cdd589b5a5d1d1959607a1b6044820152606490fd5b60405162461bcd60e51b815260048101849052601c60248201527f496e76616c6964206d696c6573746f6e652028312d33206f6e6c7929000000006044820152606490fd5b506003811115611a58565b3461015b57604036600319011261015b57611c1e611e2c565b6001600160a01b031660009081526004602052604090208054602435919082101561015b57602091611c4f91611e14565b90546040519160031b1c8152f35b3461015b57602036600319011261015b5760043560055481101561015b5760209060056000527f036b6384b5eca791c62761152d0c79bb0604c104a5fb6f4eb0703f3154bb3db00154604051908152f35b3461015b57604036600319011261015b57611d0f611cca611e04565b600060a0604051611cda81611efb565b82815282602082015282604082015282606082015282608082015201526004356000526002602052600e604060002001611f6d565b50604051611d1c81611efb565b60ff825416815260018201546020820190815260028301546040830190815260ff600385015416906060840191600381101561030257825260056004860154956080860196875201549260a0850193845260ff6040519551168552516020850152516040840152519260038410156103025760c09360608401525160808301525160a0820152f35b3461015b57602036600319011261015b576004356000526002602052602060ff60076040600020015416611ddb6040518092611df7565bf35b3461015b57600036600319011261015b5780600260209252f35b9060068210156103025752565b6024359060ff8216820361015b57565b80548210156115995760005260206000200190600090565b600435906001600160a01b038216820361015b57565b604090600319011261015b576004359060243590565b9181601f8401121561015b5782359167ffffffffffffffff831161015b576020838186019501011161015b57565b6020908160408183019282815285518094520193019160005b828110611ead575050505090565b835185529381019392810192600101611e9f565b90600182811c92168015611ef1575b6020831014611edb57565b634e487b7160e01b600052602260045260246000fd5b91607f1691611ed0565b60c0810190811067ffffffffffffffff821117610eac57604052565b60a0810190811067ffffffffffffffff821117610eac57604052565b90601f8019910116810190811067ffffffffffffffff821117610eac57604052565b9081602091031261015b5751801515810361015b5790565b906004811015611599576006020190600090565b9060ff81511660ff1990818454161783556020820151600184015560408201516002840155600383019160608101519260038410156103025760059360ff60a0948354169116179055608081015160048501550151910155565b8054600160401b811015610eac57611ff891600182018155611e14565b819291549060031b91821b91600019901b1916179055565b1561201757565b60405162461bcd60e51b815260206004820152600a60248201526927b7363c9030b236b4b760b11b6044820152606490fd5b1561205057565b60405162461bcd60e51b815260206004820152600e60248201526d131bd85b881b9bdd08199bdd5b9960921b6044820152606490fd5b1561208d57565b60405162461bcd60e51b815260206004820152600e60248201526d139bdd08185d5d1a1bdc9a5e995960921b6044820152606490fd5b156120ca57565b60405162461bcd60e51b815260206004820152600d60248201526c27b7363c903137b93937bbb2b960991b6044820152606490fd5b1561210657565b60405162461bcd60e51b815260206004820152600f60248201526e4c6f616e206e6f742061637469766560881b6044820152606490fd5b60ff60019116019060ff8211610ec257565b81810292918115918404141715610ec257565b91908203918211610ec257565b91908201809211610ec257565b6000198114610ec25760010190565b8054821015611599576000526005602060002091020190600090565b6000805b6026830180548210156121e75760026121c68360ff9361218b565b50015416156121e1576121da60269161217c565b90506121ab565b50905090565b5050505060019056fea2646970667358221220f17d22428bb80d3bc667c3cacf5839770d8dcbc0025ff8327f1a7c9bca680ec964736f6c63430008130033",
  "linkReferences": {},
  "deployedLinkReferences": {}
}