{
  "_format": "hh-sol-artifact-1",
  "contractName": "MicroLoanContract",
  "sourceName": "contracts/MicroLoanContract.sol",
  "abi": [
    {
      "inputs": [
        {
          "internalType": "address",
          "name": "_kycRegistry",
          "type": "address"
        }
      ],
      "stateMutability": "nonpayable",
      "type": "constructor"
    },
    {
      "anonymous": false,
      "inputs": [
        {
          "indexed": true,
          "internalType": "bytes32",
          "name": "loanId",
          "type": "bytes32"
        },
        {
          "indexed": false,
          "internalType": "uint256",
          "name": "score",
          "type": "uint256"
        }
      ],
      "name": "CreditScoreSet",
      "type": "event"
    },
    {
      "anonymous": false,
      "inputs": [
        {
          "indexed": true,
          "internalType": "bytes32",
          "name": "loanId",
          "type": "bytes32"
        },
        {
          "indexed": false,
          "internalType": "uint256",
          "name": "amount",
          "type": "uint256"
        }
      ],
      "name": "FundsDeposited",
      "type": "event"
    },
    {
      "anonymous": false,
      "inputs": [
        {
          "indexed": true,
          "internalType": "bytes32",
          "name": "loanId",
          "type": "bytes32"
        },
        {
          "indexed": false,
          "internalType": "address",
          "name": "lender",
          "type": "address"
        }
      ],
      "name": "LoanApproved",
      "type": "event"
    },
    {
      "anonymous": false,
      "inputs": [
        {
          "indexed": true,
          "internalType": "bytes32",
          "name": "loanId",
          "type": "bytes32"
        }
      ],
      "name": "LoanCompleted",
      "type": "event"
    },
    {
      "anonymous": false,
      "inputs": [
        {
          "indexed": true,
          "internalType": "bytes32",
          "name": "loanId",
          "type": "bytes32"
        },
        {
          "indexed": false,
          "internalType": "address",
          "name": "borrower",
          "type": "address"
        },
        {
          "indexed": false,
          "internalType": "uint256",
          "name": "amount",
          "type": "uint256"
        }
      ],
      "name": "LoanCreated",
      "type": "event"
    },
    {
      "anonymous": false,
      "inputs": [
        {
          "indexed": true,
          "internalType": "bytes32",
          "name": "loanId",
          "type": "bytes32"
        }
      ],
      "name": "LoanDefaulted",
      "type": "event"
    },
    {
      "anonymous": false,
      "inputs": [
        {
          "indexed": true,
          "internalType": "bytes32",
          "name": "loanId",
          "type": "bytes32"
        },
        {
          "indexed": false,
          "internalType": "string",
          "name": "reason",
          "type": "string"
        }
      ],
      "name": "LoanRejected",
      "type": "event"
    },
    {
      "anonymous": false,
      "inputs": [
        {
          "indexed": true,
          "internalType": "bytes32",
          "name": "loanId",
          "type": "bytes32"
        },
        {
          "indexed": false,
          "internalType": "uint8",
          "name": "stage",
          "type": "uint8"
        },
        {
          "indexed": false,
          "internalType": "bytes32",
          "name": "proofHash",
          "type": "bytes32"
        }
      ],
      "name": "MilestoneProofSubmitted",
      "type": "event"
    },
    {
      "anonymous": false,
      "inputs": [
        {
          "indexed": true,
          "internalType": "bytes32",
          "name": "loanId",
          "type": "bytes32"
        },
        {
          "indexed": false,
          "internalType": "uint8",
          "name": "stage",
          "type": "uint8"
        },
        {
          "indexed": false,
          "internalType": "uint256",
          "name": "amount",
          "type": "uint256"
        }
      ],
      "name": "MilestoneReleased",
      "type": "event"
    },
    {
      "anonymous": false,
      "inputs": [
        {
          "indexed": true,
          "internalType": "bytes32",
          "name": "loanId",
          "type": "bytes32"
        },
        {
          "indexed": false,
          "internalType": "uint256",
          "name": "installment",
          "type": "uint256"
        },
        {
          "indexed": false,
          "internalType": "uint256",
          "name": "penalty",
          "type": "uint256"
        }
      ],
      "name": "PenaltyApplied",
      "type": "event"
    },
    {
      "anonymous": false,
      "inputs": [
        {
          "indexed": true,
          "internalType": "bytes32",
          "name": "loanId",
          "type": "bytes32"
        },
        {
          "indexed": false,
          "internalType": "uint256",
          "name": "installment",
          "type": "uint256"
        },
        {
          "indexed": false,
          "internalType": "uint256",
          "name": "amount",
          "type": "uint256"
        }
      ],
      "name": "RepaymentMade",
      "type": "event"
    },
    {
      "inputs": [],
      "name": "MIN_SCORE",
      "outputs": [
        {
          "internalType": "uint256",
          "name": "",
          "type": "uint256"
        }
      ],
      "stateMutability": "view",
      "type": "function"
    },
    {
      "inputs": [],
      "name": "PENALTY_RATE",
      "outputs": [
        {
          "internalType": "uint256",
          "name": "",
          "type": "uint256"
        }
      ],
      "stateMutability": "view",
      "type": "function"
    },
    {
      "inputs": [],
      "name": "admin",
      "outputs": [
        {
          "internalType": "address",
          "name": "",
          "type": "address"
        }
      ],
      "stateMutability": "view",
      "type": "function"
    },
    {
      "inputs": [
        {
          "internalType": "uint256",
          "name": "",
          "type": "uint256"
        }
      ],
      "name": "allLoanIds",
      "outputs": [
        {
          "internalType": "bytes32",
          "name": "",
          "type": "bytes32"
        }
      ],
      "stateMutability": "view",
      "type": "function"
    },
    {
      "inputs": [
        {
          "internalType": "uint256",
          "name": "amount",
          "type": "uint256"
        },
        {
          "internalType": "uint256",
          "name": "interestRate",
          "type": "uint256"
        },
        {
          "internalType": "uint256",
          "name": "tenureMonths",
          "type": "uint256"
        },
        {
          "internalType": "string",
          "name": "collateral",
          "type": "string"
        }
      ],
      "name": "applyForLoan",
      "outputs": [
        {
          "internalType": "bytes32",
          "name": "loanId",
          "type": "bytes32"
        }
      ],
      "stateMutability": "nonpayable",
      "type": "function"
    },
    {
      "inputs": [
        {
          "internalType": "bytes32",
          "name": "loanId",
          "type": "bytes32"
        }
      ],
      "name": "approveLoan",
      "outputs": [],
      "stateMutability": "nonpayable",
      "type": "function"
    },
    {
      "inputs": [
        {
          "internalType": "address",
          "name": "",
          "type": "address"
        },
        {
          "internalType": "uint256",
          "name": "",
          "type": "uint256"
        }
      ],
      "name": "borrowerLoans",
      "outputs": [
        {
          "internalType": "bytes32",
          "name": "",
          "type": "bytes32"
        }
      ],
      "stateMutability": "view",
      "type": "function"
    },
    {
      "inputs": [
        {
          "internalType": "bytes32",
          "name": "loanId",
          "type": "bytes32"
        }
      ],
      "name": "depositFunds",
      "outputs": [],
      "stateMutability": "payable",
      "type": "function"
    },
    {
      "inputs": [],
      "name": "getAllLoans",
      "outputs": [
        {
          "internalType": "bytes32[]",
          "name": "",
          "type": "bytes32[]"
        }
      ],
      "stateMutability": "view",
      "type": "function"
    },
    {
      "inputs": [
        {
          "internalType": "address",
          "name": "borrower",
          "type": "address"
        }
      ],
      "name": "getBorrowerLoans",
      "outputs": [
        {
          "internalType": "bytes32[]",
          "name": "",
          "type": "bytes32[]"
        }
      ],
      "stateMutability": "view",
      "type": "function"
    },
    {
      "inputs": [
        {
          "internalType": "address",
          "name": "lender",
          "type": "address"
        }
      ],
      "name": "getLenderLoans",
      "outputs": [
        {
          "internalType": "bytes32[]",
          "name": "",
          "type": "bytes32[]"
        }
      ],
      "stateMutability": "view",
      "type": "function"
    },
    {
      "inputs": [
        {
          "internalType": "bytes32",
          "name": "loanId",
          "type": "bytes32"
        }
      ],
      "name": "getLoanCore",
      "outputs": [
        {
          "internalType": "address",
          "name": "borrower",
          "type": "address"
        },
        {
          "internalType": "address",
          "name": "lender",
          "type": "address"
        },
        {
          "internalType": "uint256",
          "name": "amount",
          "type": "uint256"
        },
        {
          "internalType": "uint256",
          "name": "interestRate",
          "type": "uint256"
        },
        {
          "internalType": "uint256",
          "name": "tenureMonths",
          "type": "uint256"
        },
        {
          "internalType": "enum MicroLoanContract.LoanStatus",
          "name": "status",
          "type": "uint8"
        },
        {
          "internalType": "uint256",
          "name": "creditScore",
          "type": "uint256"
        },
        {
          "internalType": "uint256",
          "name": "escrowBalance",
          "type": "uint256"
        },
        {
          "internalType": "uint256",
          "name": "totalRepaid",
          "type": "uint256"
        }
      ],
      "stateMutability": "view",
      "type": "function"
    },
    {
      "inputs": [
        {
          "internalType": "bytes32",
          "name": "loanId",
          "type": "bytes32"
        }
      ],
      "name": "getLoanStatus",
      "outputs": [
        {
          "internalType": "enum MicroLoanContract.LoanStatus",
          "name": "",
          "type": "uint8"
        }
      ],
      "stateMutability": "view",
      "type": "function"
    },
    {
      "inputs": [
        {
          "internalType": "bytes32",
          "name": "loanId",
          "type": "bytes32"
        },
        {
          "internalType": "uint8",
          "name": "idx",
          "type": "uint8"
        }
      ],
      "name": "getMilestone",
      "outputs": [
        {
          "components": [
            {
              "internalType": "uint8",
              "name": "stage",
              "type": "uint8"
            },
            {
              "internalType": "uint256",
              "name": "releasePercent",
              "type": "uint256"
            },
            {
              "internalType": "bytes32",
              "name": "proofHash",
              "type": "bytes32"
            },
            {
              "internalType": "enum MicroLoanContract.MilestoneStatus",
              "name": "status",
              "type": "uint8"
            },
            {
              "internalType": "uint256",
              "name": "releasedAt",
              "type": "uint256"
            },
            {
              "internalType": "uint256",
              "name": "amountReleased",
              "type": "uint256"
            }
          ],
          "internalType": "struct MicroLoanContract.Milestone",
          "name": "",
          "type": "tuple"
        }
      ],
      "stateMutability": "view",
      "type": "function"
    },
    {
      "inputs": [
        {
          "internalType": "bytes32",
          "name": "loanId",
          "type": "bytes32"
        }
      ],
      "name": "getRepaymentSchedule",
      "outputs": [
        {
          "components": [
            {
              "internalType": "uint256",
              "name": "emiAmount",
              "type": "uint256"
            },
            {
              "internalType": "uint256",
              "name": "dueDate",
              "type": "uint256"
            },
            {
              "internalType": "bool",
              "name": "paid",
              "type": "bool"
            },
            {
              "internalType": "uint256",
              "name": "paidAt",
              "type": "uint256"
            },
            {
              "internalType": "uint256",
              "name": "penaltyApplied",
              "type": "uint256"
            }
          ],
          "internalType": "struct MicroLoanContract.RepaymentSchedule[]",
          "name": "",
          "type": "tuple[]"
        }
      ],
      "stateMutability": "view",
      "type": "function"
    },
    {
      "inputs": [],
      "name": "getTotalLoans",
      "outputs": [
        {
          "internalType": "uint256",
          "name": "",
          "type": "uint256"
        }
      ],
      "stateMutability": "view",
      "type": "function"
    },
    {
      "inputs": [],
      "name": "kycRegistry",
      "outputs": [
        {
          "internalType": "contract KYCRegistry",
          "name": "",
          "type": "address"
        }
      ],
      "stateMutability": "view",
      "type": "function"
    },
    {
      "inputs": [
        {
          "internalType": "address",
          "name": "",
          "type": "address"
        },
        {
          "internalType": "uint256",
          "name": "",
          "type": "uint256"
        }
      ],
      "name": "lenderLoans",
      "outputs": [
        {
          "internalType": "bytes32",
          "name": "",
          "type": "bytes32"
        }
      ],
      "stateMutability": "view",
      "type": "function"
    },
    {
      "inputs": [
        {
          "internalType": "bytes32",
          "name": "",
          "type": "bytes32"
        }
      ],
      "name": "loans",
      "outputs": [
        {
          "internalType": "bytes32",
          "name": "loanId",
          "type": "bytes32"
        },
        {
          "internalType": "address",
          "name": "borrower",
          "type": "address"
        },
        {
          "internalType": "address",
          "name": "lender",
          "type": "address"
        },
        {
          "internalType": "uint256",
          "name": "amount",
          "type": "uint256"
        },
        {
          "internalType": "uint256",
          "name": "interestRate",
          "type": "uint256"
        },
        {
          "internalType": "uint256",
          "name": "tenureMonths",
          "type": "uint256"
        },
        {
          "internalType": "string",
          "name": "collateral",
          "type": "string"
        },
        {
          "internalType": "enum MicroLoanContract.LoanStatus",
          "name": "status",
          "type": "uint8"
        },
        {
          "internalType": "uint256",
          "name": "creditScore",
          "type": "uint256"
        },
        {
          "internalType": "uint256",
          "name": "escrowBalance",
          "type": "uint256"
        },
        {
          "internalType": "uint256",
          "name": "totalRepaid",
          "type": "uint256"
        },
        {
          "internalType": "uint256",
          "name": "appliedAt",
          "type": "uint256"
        },
        {
          "internalType": "uint256",
          "name": "approvedAt",
          "type": "uint256"
        },
        {
          "internalType": "uint256",
          "name": "completedAt",
          "type": "uint256"
        }
      ],
      "stateMutability": "view",
      "type": "function"
    },
    {
      "inputs": [
        {
          "internalType": "bytes32",
          "name": "loanId",
          "type": "bytes32"
        },
        {
          "internalType": "uint256",
          "name": "installment",
          "type": "uint256"
        }
      ],
      "name": "makeRepayment",
      "outputs": [],
      "stateMutability": "payable",
      "type": "function"
    },
    {
      "inputs": [
        {
          "internalType": "bytes32",
          "name": "loanId",
          "type": "bytes32"
        }
      ],
      "name": "markDefaulted",
      "outputs": [],
      "stateMutability": "nonpayable",
      "type": "function"
    },
    {
      "inputs": [
        {
          "internalType": "bytes32",
          "name": "loanId",
          "type": "bytes32"
        },
        {
          "internalType": "string",
          "name": "reason",
          "type": "string"
        }
      ],
      "name": "rejectLoan",
      "outputs": [],
      "stateMutability": "nonpayable",
      "type": "function"
    },
    {
      "inputs": [
        {
          "internalType": "bytes32",
          "name": "loanId",
          "type": "bytes32"
        },
        {
          "internalType": "uint256",
          "name": "score",
          "type": "uint256"
        }
      ],
      "name": "setCreditScore",
      "outputs": [],
      "stateMutability": "nonpayable",
      "type": "function"
    },
    {
      "inputs": [
        {
          "internalType": "bytes32",
          "name": "loanId",
          "type": "bytes32"
        },
        {
          "internalType": "uint8",
          "name": "milestoneIndex",
          "type": "uint8"
        },
        {
          "internalType": "bytes32",
          "name": "proofHash",
          "type": "bytes32"
        }
      ],
      "name": "submitMilestoneProof",
      "outputs": [],
      "stateMutability": "nonpayable",
      "type": "function"
    },
    {
      "inputs": [
        {
          "internalType": "bytes32",
          "name": "loanId",
          "type": "bytes32"
        },
        {
          "internalType": "uint8",
          "name": "milestoneIndex",
          "type": "uint8"
        }
      ],
      "name": "verifyAndReleaseMilestone",
      "outputs": [],
      "stateMutability": "nonpayable",
      "type": "function"
    }
  ],
  "bytecode": "0x608034607e57601f61231638819003918201601f19168301916001600160401b03831184841017608357808492602094604052833981010312607e57516001600160a01b03811690819003607e57600180546001600160a01b031990811633179091556000805490911691909117905560405161227c908161009a8239f35b600080fd5b634e487b7160e01b600052604160045260246000fdfe608080604052600436101561001357600080fd5b60003560e01c9081630ad08b8614611e3f575080630b8eed1014611e065780631256181614611d10578063222ff53d14611cbe5780633cdb72f114611c745780633eb156d614611a4957806340b8927014611a2c5780634b155b9714611a035780636e4c70ca146118db5780636ea2fb681461179757806371909e2914611315578063833be5d5146112f757806392e4c55214611036578063945ce82d14610c4b5780639a12bdd2146109aa578063a5bfd16a14610933578063b595ac7b14610891578063bbfe6e9514610684578063c4a90815146104bc578063dfc397011461036f578063e3ed190214610316578063ecb8bab31461025e578063eee8b7ff146101e7578063eeeb0c17146101605763f851a4401461013257600080fd5b3461015b57600036600319011261015b576001546040516001600160a01b039091168152602090f35b600080fd5b3461015b57602036600319011261015b576001600160a01b03610181611ea4565b166000526004602052604060002060405190816020825491828152019160005260206000209060005b8181106101d1576101cd856101c181870382611faa565b60405191829182611efe565b0390f35b82548452602090930192600192830192016101aa565b3461015b57602036600319011261015b576001600160a01b03610208611ea4565b166000526003602052604060002060405190816020825491828152019160005260206000209060005b818110610248576101cd856101c181870382611faa565b8254845260209093019260019283019201610231565b3461015b57602036600319011261015b5760043561028760018060a01b036001541633146120a9565b8060005260026020526102a3600b60406000200154151561201c565b806000526002602052600760406000200160ff81541660068110156103005760036102ce9114612059565b805460ff191660051790557f62bea93887ccc55bd6a7c447d71f21a125bcf688ab5e5d7c4604936bb3e8bbfe600080a2005b634e487b7160e01b600052602160045260246000fd5b3461015b57604036600319011261015b5761032f611ea4565b6001600160a01b031660009081526003602052604090208054602435919082101561015b5760209161036091611e76565b90549060031b1c604051908152f35b3461015b57604036600319011261015b5760043560243567ffffffffffffffff811161015b576103a3903690600401611ed0565b8260005260026020526103bf600b60406000200154151561201c565b8260005260026020526007604060002060018060a01b0360015416331480156104a6575b6103ec906121cb565b0160ff815416600681101561030057801590811561049b575b5015610466577f069e2e0b342bcdad29b154fe4bcbcd49e555b494c076273ff7d394bab71c798192604091600260ff1982541617905582825193849260208452816020850152848401376000828201840152601f01601f19168101030190a2005b60405162461bcd60e51b815260206004820152600d60248201526c10d85b9b9bdd081c995a9958dd609a1b6044820152606490fd5b600191501485610405565b5060028101546001600160a01b031633146103e3565b3461015b57602036600319011261015b5760043560005260026020526040600020805460018060a01b036001830154169160018060a01b036002820154169260038201549160048101549460058201549360068301966040519788600082549261052584611f38565b8084529360018116908115610662575060011461061c575b5061054a92500389611faa565b60ff60078501541695600885015490600986015492600a87015494600b88015496600d600c8a0154990154996040519c8d5260208d015260408c015260608b015260808a015260a08901526101c060c0890152885196876101c08a015260005b888110610605575091879593916105d38a98969460006101e0809c8c01015260e08a0190611e59565b6101008801526101208701526101408601526101608501526101808401526101a0830152601f01601f19168101030190f35b80602080928d0101516101e0828d010152016105aa565b90506000929192526020600020906000915b81831061064757505090602061054a928201018b61053d565b80602092948385600194549201015201910190918a9261062e565b90506020925061054a94915060ff191682840152151560051b8201018b61053d565b3461015b57602036600319011261015b576004358060005260026020526106b4600b60406000200154151561201c565b80600052600260205260406000206007810160ff815416600681101561030057610859576101f460088301541061081d5760005460405163b9209e3360e01b815233600482015290602090829060249082906001600160a01b03165afa908115610811576000916107e2575b501561079d576002820160018060a01b0333166bffffffffffffffffffffffff60a01b825416179055600160ff19825416179055600c4291015533600052600460205261077181604060002061215c565b7f1d4f194ee627e89d67973cf84b5a14659617529a015cb0349ef616e635614eb16020604051338152a2005b60405162461bcd60e51b815260206004820152601760248201527f4c656e646572204b5943206e6f742076657269666965640000000000000000006044820152606490fd5b610804915060203d60201161080a575b6107fc8183611faa565b8101906120e2565b84610720565b503d6107f2565b6040513d6000823e3d90fd5b60405162461bcd60e51b81526020600482015260146024820152734372656469742073636f726520746f6f206c6f7760601b6044820152606490fd5b60405162461bcd60e51b815260206004820152601060248201526f4c6f616e206e6f742070656e64696e6760801b6044820152606490fd5b3461015b57602036600319011261015b576004356000526002602052610120604060002060018060a01b036001820154169060018060a01b036002820154169060038101546109216004830154600584015460ff60078601541691600886015494600a600988015497015497604051998a5260208a015260408901526060880152608087015260a0860190611e59565b60c084015260e0830152610100820152f35b3461015b57600036600319011261015b5760405180602060055491828152019060056000527f036b6384b5eca791c62761152d0c79bb0604c104a5fb6f4eb0703f3154bb3db09060005b818110610994576101cd856101c181870382611faa565b825484526020909301926001928301920161097d565b3461015b57604036600319011261015b576004356109c6611e66565b8160005260026020526109e2600b60406000200154151561201c565b6001546001600160a01b031633148015610c27575b610a00906121cb565b60ff811660018110159081610c1b575b5015610be25781600052600260205260ff6003610a3483600e604060002001611fcc565b50015416600381101561030057600103610ba7578160005260026020526002610a6482600e604060002001611fcc565b50015490826000526002602052604060002091600e8301926064610a9a6001610a8d8688611fcc565b50015460038401546121b8565b0493600982019085825410610b6c578560009493859493826005610afa8a878a996002610ac8848d9c611fcc565b5001556003610ad78383611fcc565b5001805460ff19166002179055610aee8282611fcc565b50600442910155611fcc565b500155610b0883825461219e565b9055600101546001600160a01b0316828215610b63575bf115610811577fdd54b35fb157b0ae6f75827d0c5dcf7cb8bd6b163f0e0229ca06cb188abf5a0f91610b52604092612097565b9060ff8351921682526020820152a2005b506108fc610b1f565b60405162461bcd60e51b8152602060048201526013602482015272496e73756666696369656e7420657363726f7760681b6044820152606490fd5b60405162461bcd60e51b8152602060048201526013602482015272141c9bdbd9881b9bdd081cdd589b5a5d1d1959606a1b6044820152606490fd5b60405162461bcd60e51b8152602060048201526011602482015270496e76616c6964206d696c6573746f6e6560781b6044820152606490fd5b60039150111583610a10565b50600082815260026020819052604090912001546001600160a01b031633146109f7565b602036600319011261015b57600435600081815260026020819052604090912001546001600160a01b0316330361100357806000526002602052610c98600b60406000200154151561201c565b8060005260026020526040600020600781019060ff825416600681101561030057600103610fca5760038101543403610f8557600934910155600360ff19825416179055807fb27db33c2873b1f9761e7ce1dc2691d3974028bf6f815944c848e43a95e6c5d56020604051348152a26000818152600260205260408120600f8101546003820154929392600e83019291606491610d3591906121b8565b0491600982019083825410610b6c576004861015610f715760068602018560028201556004861015610f715760038101805460ff191660021790556004861015610f71574260048201556004861015610f7157858481948294826005868697500155610da283825461219e565b9055600101546001600160a01b0316828215610f68575bf115610f5d57600160ff8416019060ff8211610f3157604083927fdd54b35fb157b0ae6f75827d0c5dcf7cb8bd6b163f0e0229ca06cb188abf5a0f9260ff8351921682526020820152a281526002602052604081206003810154916201d4c0610e266004840154856121b8565b0460058301938454908115610f495791610e4391869493046121ab565b6026829401935b8354811015610f455760018101808211610f315762278d0081029080820462278d001490151715610f3157610e7f90426121ab565b60405190610e8c82611f8e565b8382526020820190815260408201858152606083019086825260808401928784528954600160401b811015610f1d57806001610ecb92018c558b612182565b959095610f095791600493916001979695935186555187860155600285019051151560ff801983541691161790555160038401555191015501610e4a565b634e487b7160e01b89526004899052602489fd5b634e487b7160e01b89526041600452602489fd5b634e487b7160e01b84526011600452602484fd5b8280f35b634e487b7160e01b84526012600452602484fd5b6040513d84823e3d90fd5b506108fc610db9565b634e487b7160e01b86526032600452602486fd5b60405162461bcd60e51b815260206004820152601e60248201527f4d757374206465706f736974206578616374206c6f616e20616d6f756e7400006044820152606490fd5b60405162461bcd60e51b8152602060048201526011602482015270131bd85b881b9bdd08185c1c1c9bdd9959607a1b6044820152606490fd5b60405162461bcd60e51b815260206004820152600b60248201526a27b7363c903632b73232b960a91b6044820152606490fd5b61103f36611eba565b81600052600260205261106360018060a01b03600160406000200154163314611fe0565b81600052600260205261107f600b60406000200154151561201c565b816000526002602052604060002090600782019060ff82541660068110156103005760036110ad9114612059565b6026830180548210156112bc57816110c491612182565b5060028101805460ff811661128857600060018401548042116111f6575b506110ee9084546121ab565b34106111ba5760019060ff1916179055600342910155600a83016111133482546121ab565b9055600080808060018060a01b03600288015416819034156111b0575b3491f115610811577f68127b7012c0638aeee0a62402db977e32896f9f2611612c3d077f89fbac4df2604085928151908152346020820152a261117282612208565b61117857005b600460ff19825416179055600d429101557fb2de89022f85d95d754a62e228df9f43dbb0a92ba0276e7ec0e6cbbe048c4700600080a2005b6108fc9150611130565b60405162461bcd60e51b8152602060048201526014602482015273125b9cdd59999a58da595b9d081c185e5b595b9d60621b6044820152606490fd5b61120462278d00914261219e565b049060018201809211611274578454908160011b918083046002149015171561127457506112376110ee926064926121b8565b04806004860155887f6d780f6ff9cde38df81183cc1dcf2f007786a6e9fb76dbe8987a65cc5d978ab260408051898152846020820152a2906110e2565b634e487b7160e01b81526011600452602490fd5b60405162461bcd60e51b815260206004820152600c60248201526b105b1c9958591e481c185a5960a21b6044820152606490fd5b60405162461bcd60e51b8152602060048201526013602482015272125b9d985b1a59081a5b9cdd185b1b1b595b9d606a1b6044820152606490fd5b3461015b57600036600319011261015b576020600554604051908152f35b3461015b57608036600319011261015b5760043560443560643567ffffffffffffffff811161015b5761134c903690600401611ed0565b60005460405163b9209e3360e01b81523360048201529193929190602090829060249082906001600160a01b03165afa90811561081157600091611778575b50156117405783156117065781156116cc5760405160208101903360601b8252426034820152856054820152605481526113c6607482611faa565b51902060008181526002602052604090208181556001810180546001600160a01b03191633179055600381018690556024356004820155600581019390935592600683019167ffffffffffffffff82116115fa576114248354611f38565b601f8111611684575b50600090601f831160011461161b5761156b9493929160009183611610575b50508160011b916000199060031b1c19161790555b6007810160ff19815416905542600b8201556114b260405161148281611f72565b6001815260146020820152600060408201526000606082015260006080820152600060a0820152600e83016120fa565b6114f16040516114c181611f72565b60028152601e6020820152600060408201526000606082015260006080820152600060a0820152601483016120fa565b61153060405161150081611f72565b60038152601e6020820152600060408201526000606082015260006080820152600060a0820152601a83016120fa565b60206040519161153f83611f72565b60048352601482840152600060408401526000606084015260006080840152600060a0840152016120fa565b33600052600360205261158281604060002061215c565b600554600160401b8110156115fa577f1a0dfea61a24fff93563d54e809e3f4d687fac3792d06b3a66863661af605fcf6040602094846115e56115ce8660018498016005556005611e76565b819391549060031b91821b91600019901b19161790565b905581519033825286820152a2604051908152f35b634e487b7160e01b600052604160045260246000fd5b01359050878061144c565b8382526020822091601f198416815b81811061166c575091600193918561156b9897969410611652575b505050811b019055611461565b0135600019600384901b60f8161c19169055878080611645565b9193602060018192878701358155019501920161162a565b836000526020600020601f840160051c810191602085106116c2575b601f0160051c01905b8181106116b6575061142d565b600081556001016116a9565b90915081906116a0565b60405162461bcd60e51b8152602060048201526012602482015271054656e757265206d757374206265203e20360741b6044820152606490fd5b60405162461bcd60e51b81526020600482015260126024820152710416d6f756e74206d757374206265203e20360741b6044820152606490fd5b60405162461bcd60e51b815260206004820152601060248201526f12d650c81b9bdd081d995c9a599a595960821b6044820152606490fd5b611791915060203d60201161080a576107fc8183611faa565b8561138b565b3461015b576117a536611eba565b6117ba60018060a01b036001541633146120a9565b8160005260026020526117d6600b60406000200154151561201c565b8160005260026020526040600020600781019160ff8354166006811015610300576118a8578060086101f4930155837fa89206b92eb368658ee8e9753d5844a62c5f47c64fe7e222ff5dd364bf3491296020604051848152a21061183657005b600260ff198254161790557f069e2e0b342bcdad29b154fe4bcbcd49e555b494c076273ff7d394bab71c7981608060405160208152602460208201527f4372656469742073636f72652062656c6f77206d696e696d756d2074687265736040820152631a1bdb1960e21b6060820152a2005b60405162461bcd60e51b815260206004820152600b60248201526a4e6f742070656e64696e6760a81b6044820152606490fd5b3461015b57602036600319011261015b576004356000526002602052602660406000200180549067ffffffffffffffff82116115fa576040519161192560208260051b0184611faa565b80835260208301809260005260206000206000915b8383106119b35784866040519182916020830190602084525180915260408301919060005b81811061196d575050500390f35b91935091602060a060019260808751805183528481015185840152604081015115156040840152606081015160608401520151608082015201940191019184939261195f565b600560206001926040516119c681611f8e565b85548152848601548382015260ff60028701541615156040820152600386015460608201526004860154608082015281520192019201919061193a565b3461015b57600036600319011261015b576000546040516001600160a01b039091168152602090f35b3461015b57600036600319011261015b5760206040516101f48152f35b3461015b57606036600319011261015b57600435611a65611e66565b60443590826000526002602052611a8d60018060a01b03600160406000200154163314611fe0565b826000526002602052611aa9600b60406000200154151561201c565b60ff811691600183101580611c69575b15611c2457836000526002602052604060002060ff60078201541690600682101561030057611aec6003600e9314612059565b019260ff6003611afc8587611fcc565b50015416600381101561030057611beb576000190160ff8111611bd5576003611b2760ff9286611fcc565b50015416600381101561030057600203611b9057610b52826003611b7e8287866002611b7660409a7f43c5852891029d1ea7f16f9cd37dc762bcb44b0932f6daa48139335edce7975b9c611fcc565b500155611fcc565b5001805460ff19166001179055612097565b60405162461bcd60e51b815260206004820152601f60248201527f50726576696f7573206d696c6573746f6e65206e6f742072656c6561736564006044820152606490fd5b634e487b7160e01b600052601160045260246000fd5b60405162461bcd60e51b8152602060048201526011602482015270105b1c9958591e481cdd589b5a5d1d1959607a1b6044820152606490fd5b60405162461bcd60e51b815260206004820152601c60248201527f496e76616c6964206d696c6573746f6e652028312d33206f6e6c7929000000006044820152606490fd5b506003831115611ab9565b3461015b57604036600319011261015b57611c8d611ea4565b6001600160a01b031660009081526004602052604090208054602435919082101561015b5760209161036091611e76565b3461015b57602036600319011261015b5760043560055481101561015b57600090600554811015611cfc576020826005829452200154604051908152f35b634e487b7160e01b82526032600452602482fd5b3461015b57604036600319011261015b57611d71611d2c611e66565b600060a0604051611d3c81611f72565b82815282602082015282604082015282606082015282608082015201526004356000526002602052600e604060002001611fcc565b50604051611d7e81611f72565b60ff825416815260018201546020820190815260028301546040830190815260ff600385015416906060840191600381101561030057825260056004860154956080860196875201549260a0850193845260ff6040519551168552516020850152516040840152519260038410156103005760c09360608401525160808301525160a0820152f35b3461015b57602036600319011261015b576004356000526002602052602060ff60076040600020015416611e3d6040518092611e59565bf35b3461015b57600036600319011261015b5780600260209252f35b9060068210156103005752565b6024359060ff8216820361015b57565b8054821015611e8e5760005260206000200190600090565b634e487b7160e01b600052603260045260246000fd5b600435906001600160a01b038216820361015b57565b604090600319011261015b576004359060243590565b9181601f8401121561015b5782359167ffffffffffffffff831161015b576020838186019501011161015b57565b602060408183019282815284518094520192019060005b818110611f225750505090565b8251845260209384019390920191600101611f15565b90600182811c92168015611f68575b6020831014611f5257565b634e487b7160e01b600052602260045260246000fd5b91607f1691611f47565b60c0810190811067ffffffffffffffff8211176115fa57604052565b60a0810190811067ffffffffffffffff8211176115fa57604052565b90601f8019910116810190811067ffffffffffffffff8211176115fa57604052565b906004811015611e8e576006020190600090565b15611fe757565b60405162461bcd60e51b815260206004820152600d60248201526c27b7363c903137b93937bbb2b960991b6044820152606490fd5b1561202357565b60405162461bcd60e51b815260206004820152600e60248201526d131bd85b881b9bdd08199bdd5b9960921b6044820152606490fd5b1561206057565b60405162461bcd60e51b815260206004820152600f60248201526e4c6f616e206e6f742061637469766560881b6044820152606490fd5b60ff60019116019060ff8211611bd557565b156120b057565b60405162461bcd60e51b815260206004820152600a60248201526927b7363c9030b236b4b760b11b6044820152606490fd5b9081602091031261015b5751801515810361015b5790565b9060ff81511660ff1983541617825560208101516001830155604081015160028301556060810151600381101561030057600383019160038210156103005760059260a09260ff80198354169116179055608081015160048501550151910155565b805490600160401b8210156115fa57816115ce91600161217e94018155611e76565b9055565b8054821015611e8e576000526005602060002091020190600090565b91908203918211611bd557565b91908201809211611bd557565b81810292918115918404141715611bd557565b156121d257565b60405162461bcd60e51b815260206004820152600e60248201526d139bdd08185d5d1a1bdc9a5e995960921b6044820152606490fd5b60005b60268201805482101561223e5760026122268360ff93612182565b50015416156122375760010161220b565b5050600090565b50505060019056fea26469706673582212208d542605ea6544017953996394a7347b60ffa4c7a1076e8dd7f837796347e43764736f6c634300081c0033",
  "linkReferences": {},
  "deployedLinkReferences": {}
}